:100000000A128A11FC2FFF1B0D2883137F188317F8
:100010000008840A0319FF0A080000308A00040857
:10002000840A82070034013400340A340034643412
:100030000034E834033410342734533465346E34D8
:1000400073346F3472346534733420344C34613417
:10005000623420344434693467346934743461342C
:100060006C346534733420340D340A340034543421
:1000700065346D34703431342034253430343334C5
:100080006434203400345434323420342534303451
:10009000333464342034003454343334203425343D
:1000A000303433346434203400340D340A340034B2
:0400B0002C340034B8
:10012C008C1A9A2803100800031408008C1E9C28B3
:10013C00981CA228181218161A080800F00083162A
:10014C00981CA5287008831299000800F100F00192
:10015C003A3071020318B82830307102031CB828E9
:10016C00F001F00A700C0800F401F501701CC428B1
:10017C007208F4070318F50A7308F5070130031029
:10018C00F20DF30DFF3E031DC52801300310F10CD9
:10019C00F00CFF3E031DCC2870087104031DBC2815
:1001AC007508F1007408F0000800F4017408710778
:1001BC00840072080318720A83120313FF000A12D8
:1001CC008A1103200A128A11003A031908007408D4
:1001DC007107840072080318720AFF000A128A1150
:1001EC0003200A128A110A128A11A4200A128A11F7
:1001FC000130F3007308F407DC287808790403193C
:10020C003029FD01FD0AF91B172901300310F80DE7
:10021C00F90DFF3E031D0C290130FC007C08FD0785
:10022C00092979087B02031D1D2978087A02031C11
:10023C0025297808FA027908031CFB03FB0201301C
:10024C000310F90CF80CFF3E031D26290130FD02AA
:10025C00031D17297B08F9007A08F8000800F6003E
:10026C0046297308803E42297308C03E4229730810
:10027C00943E42297308D43EF5007508F7005429C2
:10028C007608013A03193729033A03193A29013A36
:10029C0003193D29073A03194029542977080A12F2
:1002AC008A11C0230A128A1174088400831300086F
:1002BC00031908007408840000080A128A116E24BD
:1002CC000A128A110130F5007508F4075A29F50154
:1002DC00F601700871040319A429F701F70AF11B40
:1002EC00832901300310F00DF10DFF3E031D782919
:1002FC000130F4007408F707752901300310F50D6F
:10030C00F60DFF3E031D842971087302031D90290D
:10031C0070087202031C99297008F2027108031C00
:10032C00F303F302751401300310F10CF00CFF3ED3
:10033C00031D9A290130F702031D83297608F10069
:10034C007508F00008000030FC000030FB000030A5
:10035C00FA000030F9007308720471047004031978
:10036C00FE29FD01FD0AF31BC9290130F800031019
:10037C00F00DF10DF20DF30DF80BBD290130F80065
:10038C007808FD07B9290130F8000310F90DFA0DB2
:10039C00FB0DFC0DF80BCB2973087702031DE0292C
:1003AC0072087602031DE02971087502031DE0290D
:1003BC0070087402031CF1297008F4027108031C04
:1003CC00710FF5027208031C720FF6027308031CFE
:1003DC00730FF702791401300310F30CF20CF10CCB
:1003EC00F00CFF3E031DF2290130FD02031DC9294B
:1003FC007C08F3007B08F2007A08F1007908F00021
:10040C000800F400831603138501051485140515E3
:10041C00C530F200720883129F057408F200013097
:10042C000310F20DFF3E031D162A0310720DF3008C
:10043C0073089F040D30F200F20B222A7408031D7E
:10044C003E2AC330831203139F059F140D30F20014
:10045C00F20B2E2A831203139F18302A1E08F60063
:10046C0083161E08F500760D760CF600750CF5005B
:10047C000D30F200F20B402A7403031D5E2A831226
:10048C0003131F08C33904389F009F140D30F2006A
:10049C00F20B4E2A831203139F18502A1E08F600E3
:1004AC0083161E08F500760D760CF600750CF5001B
:1004BC000D30F200F20B602A02307406031D7F2A05
:1004CC00831203131F08C33908389F009F140D3083
:1004DC00F200F20B6F2A831203139F18712A1E0865
:1004EC00F60083161E08F500760D760CF600750CDA
:1004FC00F5007608F1007508F00008002008A4004B
:10050C002108A5002208A6002308A7000430031028
:10051C00A40DA50DA60DA70DFF3E031D8D2A2708C2
:10052C00F3002608F2002508F1002408F000003042
:10053C00F7007A30F6001230F5000030F4000A12A1
:10054C008A11A9210A128A117008FF3EA8007108AD
:10055C000318013EFF3EA900A91FB62AA801A90154
:10056C002908803AFF0081307F02031DBF2A00302A
:10057C002802031C092B831203132008A400210852
:10058C00A5002208A6002308A70006300310A40D1E
:10059C00A50DA60DA70DFF3E031DCC2A2708F300C1
:1005AC002608F2002508F1002408F0000030F700BE
:1005BC007A30F6001230F5000030F4000A128A117D
:1005CC00A9210A128A117008FF3EA80071080318AD
:1005DC00013EFF3EA9002908803AFF0081307F02CE
:1005EC00031DFA2A00302802031C022BFF30831251
:1005FC000313A8000030A9008312031328088316E4
:10060C00990020300F2B83120313280883169900AE
:10061C00243098009030831298000800831603133E
:10062C008613061386120612061106108312861301
:10063C00061386120612061106100F30F40047300E
:10064C00F300F30B272BF40B272B2C2B0F30F40080
:10065C004730F300F30B302BF40B302B352B0F30D2
:10066C00F4004730F300F30B392BF40B392B3E2BF2
:10067C000F30F4004730F300F30B422BF40B422BFA
:10068C00472B0F30F4004730F300F30B4B2BF40BDC
:10069C004B2B502B0F30F4004730F300F30B542B43
:1006AC00F40B542B592BF501F50A83120313861303
:1006BC0006138616061606110610861306138616E2
:1006CC000616061506100330F300F30B6B2B831282
:1006DC0003138613061386160616061106100F3022
:1006EC00F4004730F300F30B792BF40B792B7E2BB2
:1006FC000130F3007308F50704307502031C5B2B03
:10070C00831203138613061386160612061106109F
:10071C008613061386160612061506100330F30010
:10072C00F30B962B831203138613061386160612ED
:10073C00061106100F30F4004730F300F30BA42B16
:10074C00F40BA42BA92B28300A128A11C0230A12ED
:10075C008A1110300A128A11C0230A128A11013030
:10076C000A128A11C0230A128A110F300A128A1136
:10077C00C0230800F200831203130611061072083E
:10078C00F00007300310F00CFF3E031DC82B70085F
:10079C000139F100F10CF10C060871067F39710674
:1007AC0086007208F00006300310F00CFF3E031DAB
:1007BC00DA2B70080139F100F10EF10DF10D06087C
:1007CC007106BF39710686007208F00005300310FF
:1007DC00F00CFF3E031DED2B70080139F100F10EFA
:1007EC00F10D06087106DF39710686007208F000FB
:1007FC0004300310F00CFF3E031DFF2B7008013971
:10080C00F100F10E06087106EF397106860003300F
:10081C00F000F00B0F2C8312031306150330F000BD
:10082C00F00B162C8312031306117208F000033020
:10083C000310F00CFF3E031D1E2C70080139F10053
:10084C00F10CF10C060871067F39710686007208EE
:10085C00F00002300310F00CFF3E031D302C70082A
:10086C000139F100F10EF10DF10D06087106BF39D9
:10087C00710686007208F0000310700C0139F1004B
:10088C00F10EF10D06087106DF397106860072084B
:10089C000139F000F00E06087006EF39700686007C
:1008AC000330F000F00B582C8312031306150330A1
:1008BC00F000F00B5F2C8312031306110F30F100C4
:1008CC004730F000F00B682CF10B682C6D2C0800F5
:1008DC00F20083120313061106147208F00007309D
:1008EC000310F00CFF3E031D762C70080139F1004B
:1008FC00F10CF10C060871067F397106860072083E
:10090C00F00006300310F00CFF3E031D882C70081D
:10091C000139F100F10EF10DF10D06087106BF3928
:10092C00710686007208F00005300310F00CFF3ED3
:10093C00031D9B2C70080139F100F10EF10D060816
:10094C007106DF39710686007208F000043003105E
:10095C00F00CFF3E031DAD2C70080139F100F10EB7
:10096C0006087106EF39710686000330F000F00BB3
:10097C00BD2C8312031306150330F000F00BC42CAE
:10098C008312031306117208F00003300310F00CED
:10099C00FF3E031DCC2C70080139F100F10CF10C59
:1009AC00060871067F39710686007208F000023065
:1009BC000310F00CFF3E031DDE2C70080139F10012
:1009CC00F10EF10DF10D06087106BF3971068600A6
:1009DC007208F0000310700C0139F100F10EF10DEA
:1009EC0006087106DF397106860072080139F000BD
:1009FC00F00E06087006EF39700686000330F00022
:100A0C00F00B062D8312031306150330F000F00BC8
:100A1C000D2D8312031306110330F000F00B142D6F
:100A2C000F30F1004730F000F00B1A2DF10B1A2D9E
:100A3C001F2D0800831686010713871703178901DA
:100A4C00081488140815803003139F00813083121A
:100A5C009F00703083168F0000308312A30000308B
:100A6C00A2002530A1008030A0000A128A11842235
:100A7C000A128A11153083120313B1004B30B000E7
:100A8C00BD30AF00AF0B482DB00B482DB10B482D2E
:100A9C004F2D0B30F1008030F2000A128A11DB204E
:100AAC000A128A110B3083120313B1002630B000E6
:100ABC005D30AF00AF0B602DB00B602DB10B602D16
:100ACC000A128A1114230A128A1101300A128A118D
:100ADC00C0230A128A110C300A128A11C0230A127E
:100AEC008A11023083120313B1000430B000B93004
:100AFC00AF00AF0B7F2DB00B7F2DB10B7F2D862D53
:100B0C0000300A128A1107220A128A117108831204
:100B1C000313C4007008C3002530AF002F08A000D9
:100B2C004408A2004308A10032300A128A11702630
:100B3C000A128A11F301F30A3230AF002F08F400C5
:100B4C0001300A128A1135210A128A113230F10051
:100B5C000030F2000A128A11DB200A128A110B30C3
:100B6C0083120313B1002630B0005D30AF00AF0B21
:100B7C00BD2DB00BBD2DB10BBD2D4630F10080301D
:100B8C00F2000A128A11DB200A128A1101300A12B1
:100B9C008A1107220A128A11710883120313C400E6
:100BAC007008C3003130AF002F08A0004408A20029
:100BBC004308A10032300A128A1170260A128A11D7
:100BCC00F301F30A3230AF002F08F40002300A129E
:100BDC008A1135210A128A113230F1000030F200EC
:100BEC000A128A11DB200A128A110B3083120313AA
:100BFC00B1002630B0005D30AF00AF0B032EB00B50
:100C0C00032EB10B032E4630F1008030F2000A1295
:100C1C008A11DB200A128A1102300A128A11072269
:100C2C000A128A11710883120313C4007008C300DE
:100C3C003A30AF002F08A0004408A2004308A100DE
:100C4C0032300A128A1170260A128A110830AF004B
:100C5C002F08F3003230B0003008F40002300A12D2
:100C6C008A1135210A128A113230F1000030F2005B
:100C7C000A128A11DB200A128A110B308312031319
:100C8C00B1002630B0005D30AF00AF0B4B2EB00B77
:100C9C004B2EB10B4B2E4330F1008030F2000A1278
:100CAC008A11DB200A128A110A128A1196200A1262
:100CBC008A11031C862D0A128A119C200A128A1191
:100CCC00AF002F08C20042080A128A11A4200A128F
:100CDC008A11862DAD002130A3002308A600013017
:100CEC00A007FF30200784000A128A110D200A1277
:100CFC008A11A3002308AE002E080319F72F253004
:100D0C002E060319952E2E08A3002D088400230807
:100D1C00831380000130A3002308AD07752EAB01AF
:100D2C00AC01AA019E2E2A150130A3002308A007AE
:100D3C00200884000A128A110D200A128A11303AF6
:100D4C000319992EA92E200884000A128A110D204D
:100D5C000A128A110A128A11AC200A128A11031C77
:100D6C00EF2EAB01AC010A30F0000030F1002C0882
:100D7C00F3002B08F2000A128A11BA200A128A1107
:100D8C007108AC007008AB00200884000A128A11AC
:100D9C000D200A128A11D03EA300FF300318003038
:100DAC00A4002308AB070318AC0A2408AC070130D5
:100DBC00A3002308A007200884000A128A110D2022
:100DCC000A128A110A128A11AC200A128A1103180B
:100DDC00B92E0130A007FF30200784000A128A11B7
:100DEC000D200A128A11AE00003A0319F72F643A4B
:100DFC000319042F0D3A0319042F752E26088400AD
:100E0C0083130008A800840A0008A9000230A3007C
:100E1C002308A607A91F1B2F0330A3002308AA042D
:100E2C00A809A909A80A0319A90AAE01AE0A2E0835
:100E3C00A3002307013E84000A128A110D200A1216
:100E4C008A11A4000A128A110D200A128A11A50017
:100E5C0025082902031D342F24082802031C3E2FC9
:100E6C000130A3002308AE0705302E06031D1D2FED
:100E7C002B082C0403194C2F2A08033903194C2F67
:100E8C00FF30AB070318AC0AFF30AC072C08803AD4
:100E9C00803C031D532F2B082E020318612F831245
:100EAC0003132E08A300A4012308AB022408031C7F
:100EBC00AC03AC02652F83120313AB01AC012A1DEA
:100ECC008C2F2A0803390319762F2D30A3002D08F7
:100EDC0084002308831380000130A3002308AD078E
:100EEC002B082C040319B42F3030A3002D088400D8
:100EFC002308831380000130A3002308AD07FF30C3
:100F0C00AB070318AC0AFF30AC07762F2B082C0468
:100F1C000319A52F2030A3002D0884002308831368
:100F2C0080000130A3002308AD07FF30AB07031886
:100F3C00AC0AFF30AC072B082C04031D902F2A0899
:100F4C0003390319B42F2D30A3002D088400230876
:100F5C00831380000130A3002308AD072E08A300E3
:100F6C002308A700FF30A3002308A707270A0319AB
:100F7C00752E0A30F8000030F9002708A30023076B
:100F8C00013E84000A128A110D200A128A11F00007
:100F9C000A128A110D200A128A11F1002908F30095
:100FAC002808F2000A128A116D210A128A1171089E
:100FBC00FB007008FA000A128A1103210A128A1126
:100FCC007808303EA4002408AE002E08A3002D089B
:100FDC0084002308831380000130A3002308AD078D
:100FEC00B82F2D08840083138001080083010A1296
:040FFC008A11202D09
:04400E00D4ECFFFFF0
:00000001FF
